{
  "contractName": "Blog",
  "abi": [
    {
      "inputs": [],
      "stateMutability": "nonpayable",
      "type": "constructor"
    },
    {
      "anonymous": false,
      "inputs": [
        {
          "indexed": false,
          "internalType": "uint256",
          "name": "id",
          "type": "uint256"
        },
        {
          "indexed": false,
          "internalType": "string",
          "name": "title",
          "type": "string"
        },
        {
          "indexed": false,
          "internalType": "string",
          "name": "content",
          "type": "string"
        },
        {
          "indexed": false,
          "internalType": "uint256",
          "name": "timestamp",
          "type": "uint256"
        },
        {
          "indexed": false,
          "internalType": "address",
          "name": "author",
          "type": "address"
        },
        {
          "indexed": false,
          "internalType": "string[]",
          "name": "tags",
          "type": "string[]"
        }
      ],
      "name": "PostCreated",
      "type": "event"
    },
    {
      "inputs": [],
      "name": "postCount",
      "outputs": [
        {
          "internalType": "uint256",
          "name": "",
          "type": "uint256"
        }
      ],
      "stateMutability": "view",
      "type": "function",
      "constant": true
    },
    {
      "inputs": [
        {
          "internalType": "uint256",
          "name": "",
          "type": "uint256"
        }
      ],
      "name": "posts",
      "outputs": [
        {
          "internalType": "uint256",
          "name": "id",
          "type": "uint256"
        },
        {
          "internalType": "string",
          "name": "title",
          "type": "string"
        },
        {
          "internalType": "string",
          "name": "content",
          "type": "string"
        },
        {
          "internalType": "uint256",
          "name": "timestamp",
          "type": "uint256"
        },
        {
          "internalType": "address",
          "name": "author",
          "type": "address"
        }
      ],
      "stateMutability": "view",
      "type": "function",
      "constant": true
    },
    {
      "inputs": [
        {
          "internalType": "string",
          "name": "_title",
          "type": "string"
        },
        {
          "internalType": "string",
          "name": "_content",
          "type": "string"
        },
        {
          "internalType": "string[]",
          "name": "_tags",
          "type": "string[]"
        }
      ],
      "name": "createPost",
      "outputs": [],
      "stateMutability": "nonpayable",
      "type": "function"
    },
    {
      "inputs": [],
      "name": "getPosts",
      "outputs": [
        {
          "components": [
            {
              "internalType": "uint256",
              "name": "id",
              "type": "uint256"
            },
            {
              "internalType": "string",
              "name": "title",
              "type": "string"
            },
            {
              "internalType": "string",
              "name": "content",
              "type": "string"
            },
            {
              "internalType": "uint256",
              "name": "timestamp",
              "type": "uint256"
            },
            {
              "internalType": "address",
              "name": "author",
              "type": "address"
            },
            {
              "internalType": "string[]",
              "name": "tags",
              "type": "string[]"
            }
          ],
          "internalType": "struct Blog.Post[]",
          "name": "",
          "type": "tuple[]"
        }
      ],
      "stateMutability": "view",
      "type": "function",
      "constant": true
    },
    {
      "inputs": [
        {
          "internalType": "uint256",
          "name": "_id",
          "type": "uint256"
        }
      ],
      "name": "getPost",
      "outputs": [
        {
          "components": [
            {
              "internalType": "uint256",
              "name": "id",
              "type": "uint256"
            },
            {
              "internalType": "string",
              "name": "title",
              "type": "string"
            },
            {
              "internalType": "string",
              "name": "content",
              "type": "string"
            },
            {
              "internalType": "uint256",
              "name": "timestamp",
              "type": "uint256"
            },
            {
              "internalType": "address",
              "name": "author",
              "type": "address"
            },
            {
              "internalType": "string[]",
              "name": "tags",
              "type": "string[]"
            }
          ],
          "internalType": "struct Blog.Post",
          "name": "",
          "type": "tuple"
        }
      ],
      "stateMutability": "view",
      "type": "function",
      "constant": true
    },
    {
      "inputs": [
        {
          "internalType": "address",
          "name": "_author",
          "type": "address"
        }
      ],
      "name": "getPostsByAuthor",
      "outputs": [
        {
          "components": [
            {
              "internalType": "uint256",
              "name": "id",
              "type": "uint256"
            },
            {
              "internalType": "string",
              "name": "title",
              "type": "string"
            },
            {
              "internalType": "string",
              "name": "content",
              "type": "string"
            },
            {
              "internalType": "uint256",
              "name": "timestamp",
              "type": "uint256"
            },
            {
              "internalType": "address",
              "name": "author",
              "type": "address"
            },
            {
              "internalType": "string[]",
              "name": "tags",
              "type": "string[]"
            }
          ],
          "internalType": "struct Blog.Post[]",
          "name": "",
          "type": "tuple[]"
        }
      ],
      "stateMutability": "view",
      "type": "function",
      "constant": true
    },
    {
      "inputs": [
        {
          "internalType": "address payable",
          "name": "_author",
          "type": "address"
        }
      ],
      "name": "donateToAuthor",
      "outputs": [],
      "stateMutability": "payable",
      "type": "function",
      "payable": true
    }
  ],
  "bytecode": "0x608060405234801561001057600080fd5b50611bdb806100206000396000f3fe6080604052600436106100705760003560e01c806340731c241161004e57806340731c24146100fd57806341f3004a1461013a578063b01c7a4d14610165578063f4ab24991461018e57610070565b80630b1e7f831461007557806317906c2e146100b65780631dadb1f1146100e1575b600080fd5b34801561008157600080fd5b5061009c600480360381019061009791906110c7565b6101cb565b6040516100ad9594939291906111dd565b60405180910390f35b3480156100c257600080fd5b506100cb610341565b6040516100d8919061123e565b60405180910390f35b6100fb60048036038101906100f69190611297565b610347565b005b34801561010957600080fd5b50610124600480360381019061011f91906110c7565b610443565b6040516101319190611485565b60405180910390f35b34801561014657600080fd5b5061014f6106f2565b60405161015c9190611600565b60405180910390f35b34801561017157600080fd5b5061018c6004803603810190610187919061183d565b6109b8565b005b34801561019a57600080fd5b506101b560048036038101906101b09190611910565b610b04565b6040516101c29190611600565b60405180910390f35b600081815481106101db57600080fd5b90600052602060002090600602016000915090508060000154908060010180546102049061196c565b80601f01602080910402602001604051908101604052809291908181526020018280546102309061196c565b801561027d5780601f106102525761010080835404028352916020019161027d565b820191906000526020600020905b81548152906001019060200180831161026057829003601f168201915b5050505050908060020180546102929061196c565b80601f01602080910402602001604051908101604052809291908181526020018280546102be9061196c565b801561030b5780601f106102e05761010080835404028352916020019161030b565b820191906000526020600020905b8154815290600101906020018083116102ee57829003601f168201915b5050505050908060030154908060040160009054906101000a900473ffffffffffffffffffffffffffffffffffffffff16905085565b60015481565b6000341161038a576040517f08c379a0000000000000000000000000000000000000000000000000000000008152600401610381906119e9565b60405180910390fd5b600073ffffffffffffffffffffffffffffffffffffffff168173ffffffffffffffffffffffffffffffffffffffff16036103f9576040517f08c379a00000000000000000000000000000000000000000000000000000000081526004016103f090611a55565b60405180910390fd5b8073ffffffffffffffffffffffffffffffffffffffff166108fc349081150290604051600060405180830381858888f1935050505015801561043f573d6000803e3d6000fd5b5050565b61044b610eca565b600060018361045a9190611aa4565b8154811061046b5761046a611ad8565b5b90600052602060002090600602016040518060c00160405290816000820154815260200160018201805461049e9061196c565b80601f01602080910402602001604051908101604052809291908181526020018280546104ca9061196c565b80156105175780601f106104ec57610100808354040283529160200191610517565b820191906000526020600020905b8154815290600101906020018083116104fa57829003601f168201915b505050505081526020016002820180546105309061196c565b80601f016020809104026020016040519081016040528092919081815260200182805461055c9061196c565b80156105a95780601f1061057e576101008083540402835291602001916105a9565b820191906000526020600020905b81548152906001019060200180831161058c57829003601f168201915b50505050508152602001600382015481526020016004820160009054906101000a900473ffffffffffffffffffffffffffffffffffffffff1673ffffffffffffffffffffffffffffffffffffffff1673ffffffffffffffffffffffffffffffffffffffff16815260200160058201805480602002602001604051908101604052809291908181526020016000905b828210156106e35783829060005260206000200180546106569061196c565b80601f01602080910402602001604051908101604052809291908181526020018280546106829061196c565b80156106cf5780601f106106a4576101008083540402835291602001916106cf565b820191906000526020600020905b8154815290600101906020018083116106b257829003601f168201915b505050505081526020019060010190610637565b50505050815250509050919050565b60606000805480602002602001604051908101604052809291908181526020016000905b828210156109af57838290600052602060002090600602016040518060c0016040529081600082015481526020016001820180546107539061196c565b80601f016020809104026020016040519081016040528092919081815260200182805461077f9061196c565b80156107cc5780601f106107a1576101008083540402835291602001916107cc565b820191906000526020600020905b8154815290600101906020018083116107af57829003601f168201915b505050505081526020016002820180546107e59061196c565b80601f01602080910402602001604051908101604052809291908181526020018280546108119061196c565b801561085e5780601f106108335761010080835404028352916020019161085e565b820191906000526020600020905b81548152906001019060200180831161084157829003601f168201915b50505050508152602001600382015481526020016004820160009054906101000a900473ffffffffffffffffffffffffffffffffffffffff1673ffffffffffffffffffffffffffffffffffffffff1673ffffffffffffffffffffffffffffffffffffffff16815260200160058201805480602002602001604051908101604052809291908181526020016000905b8282101561099857838290600052602060002001805461090b9061196c565b80601f01602080910402602001604051908101604052809291908181526020018280546109379061196c565b80156109845780601f1061095957610100808354040283529160200191610984565b820191906000526020600020905b81548152906001019060200180831161096757829003601f168201915b5050505050815260200190600101906108ec565b505050508152505081526020019060010190610716565b50505050905090565b60006040518060c00160405280600180546109d39190611b07565b81526020018581526020018481526020014281526020013373ffffffffffffffffffffffffffffffffffffffff168152602001838152509080600181540180825580915050600190039060005260206000209060060201600090919091909150600082015181600001556020820151816001019080519060200190610a59929190610f16565b506040820151816002019080519060200190610a76929190610f16565b506060820151816003015560808201518160040160006101000a81548173ffffffffffffffffffffffffffffffffffffffff021916908373ffffffffffffffffffffffffffffffffffffffff16021790555060a0820151816005019080519060200190610ae4929190610f9c565b50505060016000815480929190610afa90611b5d565b9190505550505050565b60606000808054905067ffffffffffffffff811115610b2657610b2561162c565b5b604051908082528060200260200182016040528015610b5f57816020015b610b4c610eca565b815260200190600190039081610b445790505b5090506000805b600080549050811015610ebf578473ffffffffffffffffffffffffffffffffffffffff1660008281548110610b9e57610b9d611ad8565b5b906000526020600020906006020160040160009054906101000a900473ffffffffffffffffffffffffffffffffffffffff1673ffffffffffffffffffffffffffffffffffffffff1603610eac5760008181548110610bff57610bfe611ad8565b5b90600052602060002090600602016040518060c001604052908160008201548152602001600182018054610c329061196c565b80601f0160208091040260200160405190810160405280929190818152602001828054610c5e9061196c565b8015610cab5780601f10610c8057610100808354040283529160200191610cab565b820191906000526020600020905b815481529060010190602001808311610c8e57829003601f168201915b50505050508152602001600282018054610cc49061196c565b80601f0160208091040260200160405190810160405280929190818152602001828054610cf09061196c565b8015610d3d5780601f10610d1257610100808354040283529160200191610d3d565b820191906000526020600020905b815481529060010190602001808311610d2057829003601f168201915b50505050508152602001600382015481526020016004820160009054906101000a900473ffffffffffffffffffffffffffffffffffffffff1673ffffffffffffffffffffffffffffffffffffffff1673ffffffffffffffffffffffffffffffffffffffff16815260200160058201805480602002602001604051908101604052809291908181526020016000905b82821015610e77578382906000526020600020018054610dea9061196c565b80601f0160208091040260200160405190810160405280929190818152602001828054610e169061196c565b8015610e635780601f10610e3857610100808354040283529160200191610e63565b820191906000526020600020905b815481529060010190602001808311610e4657829003601f168201915b505050505081526020019060010190610dcb565b5050505081525050838381518110610e9257610e91611ad8565b5b60200260200101819052508180610ea890611b5d565b9250505b8080610eb790611b5d565b915050610b66565b508192505050919050565b6040518060c0016040528060008152602001606081526020016060815260200160008152602001600073ffffffffffffffffffffffffffffffffffffffff168152602001606081525090565b828054610f229061196c565b90600052602060002090601f016020900481019282610f445760008555610f8b565b82601f10610f5d57805160ff1916838001178555610f8b565b82800160010185558215610f8b579182015b82811115610f8a578251825591602001919060010190610f6f565b5b509050610f989190610ffc565b5090565b828054828255906000526020600020908101928215610feb579160200282015b82811115610fea578251829080519060200190610fda929190610f16565b5091602001919060010190610fbc565b5b509050610ff89190611019565b5090565b5b80821115611015576000816000905550600101610ffd565b5090565b5b808211156110395760008181611030919061103d565b5060010161101a565b5090565b5080546110499061196c565b6000825580601f1061105b575061107a565b601f0160209004906000526020600020908101906110799190610ffc565b5b50565b6000604051905090565b600080fd5b600080fd5b6000819050919050565b6110a481611091565b81146110af57600080fd5b50565b6000813590506110c18161109b565b92915050565b6000602082840312156110dd576110dc611087565b5b60006110eb848285016110b2565b91505092915050565b6110fd81611091565b82525050565b600081519050919050565b600082825260208201905092915050565b60005b8381101561113d578082015181840152602081019050611122565b8381111561114c576000848401525b50505050565b6000601f19601f8301169050919050565b600061116e82611103565b611178818561110e565b935061118881856020860161111f565b61119181611152565b840191505092915050565b600073ffffffffffffffffffffffffffffffffffffffff82169050919050565b60006111c78261119c565b9050919050565b6111d7816111bc565b82525050565b600060a0820190506111f260008301886110f4565b81810360208301526112048187611163565b905081810360408301526112188186611163565b905061122760608301856110f4565b61123460808301846111ce565b9695505050505050565b600060208201905061125360008301846110f4565b92915050565b60006112648261119c565b9050919050565b61127481611259565b811461127f57600080fd5b50565b6000813590506112918161126b565b92915050565b6000602082840312156112ad576112ac611087565b5b60006112bb84828501611282565b91505092915050565b6112cd81611091565b82525050565b600082825260208201905092915050565b60006112ef82611103565b6112f981856112d3565b935061130981856020860161111f565b61131281611152565b840191505092915050565b611326816111bc565b82525050565b600081519050919050565b600082825260208201905092915050565b6000819050602082019050919050565b600061136483836112e4565b905092915050565b6000602082019050919050565b60006113848261132c565b61138e8185611337565b9350836020820285016113a085611348565b8060005b858110156113dc57848403895281516113bd8582611358565b94506113c88361136c565b925060208a019950506001810190506113a4565b50829750879550505050505092915050565b600060c08301600083015161140660008601826112c4565b506020830151848203602086015261141e82826112e4565b9150506040830151848203604086015261143882826112e4565b915050606083015161144d60608601826112c4565b506080830151611460608086018261131d565b5060a083015184820360a08601526114788282611379565b9150508091505092915050565b6000602082019050818103600083015261149f81846113ee565b905092915050565b600081519050919050565b600082825260208201905092915050565b6000819050602082019050919050565b600060c0830160008301516114eb60008601826112c4565b506020830151848203602086015261150382826112e4565b9150506040830151848203604086015261151d82826112e4565b915050606083015161153260608601826112c4565b506080830151611545608086018261131d565b5060a083015184820360a086015261155d8282611379565b9150508091505092915050565b600061157683836114d3565b905092915050565b6000602082019050919050565b6000611596826114a7565b6115a081856114b2565b9350836020820285016115b2856114c3565b8060005b858110156115ee57848403895281516115cf858261156a565b94506115da8361157e565b925060208a019950506001810190506115b6565b50829750879550505050505092915050565b6000602082019050818103600083015261161a818461158b565b905092915050565b600080fd5b600080fd5b7f4e487b7100000000000000000000000000000000000000000000000000000000600052604160045260246000fd5b61166482611152565b810181811067ffffffffffffffff821117156116835761168261162c565b5b80604052505050565b600061169661107d565b90506116a2828261165b565b919050565b600067ffffffffffffffff8211156116c2576116c161162c565b5b6116cb82611152565b9050602081019050919050565b82818337600083830152505050565b60006116fa6116f5846116a7565b61168c565b90508281526020810184848401111561171657611715611627565b5b6117218482856116d8565b509392505050565b600082601f83011261173e5761173d611622565b5b813561174e8482602086016116e7565b91505092915050565b600067ffffffffffffffff8211156117725761177161162c565b5b602082029050602081019050919050565b600080fd5b600061179b61179684611757565b61168c565b905080838252602082019050602084028301858111156117be576117bd611783565b5b835b8181101561180557803567ffffffffffffffff8111156117e3576117e2611622565b5b8086016117f08982611729565b855260208501945050506020810190506117c0565b5050509392505050565b600082601f83011261182457611823611622565b5b8135611834848260208601611788565b91505092915050565b60008060006060848603121561185657611855611087565b5b600084013567ffffffffffffffff8111156118745761187361108c565b5b61188086828701611729565b935050602084013567ffffffffffffffff8111156118a1576118a061108c565b5b6118ad86828701611729565b925050604084013567ffffffffffffffff8111156118ce576118cd61108c565b5b6118da8682870161180f565b9150509250925092565b6118ed816111bc565b81146118f857600080fd5b50565b60008135905061190a816118e4565b92915050565b60006020828403121561192657611925611087565b5b6000611934848285016118fb565b91505092915050565b7f4e487b7100000000000000000000000000000000000000000000000000000000600052602260045260246000fd5b6000600282049050600182168061198457607f821691505b6020821081036119975761199661193d565b5b50919050565b7f416d6f756e74206d7573742062652067726561746572207468616e2030000000600082015250565b60006119d3601d8361110e565b91506119de8261199d565b602082019050919050565b60006020820190508181036000830152611a02816119c6565b9050919050565b7f496e76616c696420617574686f72206164647265737300000000000000000000600082015250565b6000611a3f60168361110e565b9150611a4a82611a09565b602082019050919050565b60006020820190508181036000830152611a6e81611a32565b9050919050565b7f4e487b7100000000000000000000000000000000000000000000000000000000600052601160045260246000fd5b6000611aaf82611091565b9150611aba83611091565b925082821015611acd57611acc611a75565b5b828203905092915050565b7f4e487b7100000000000000000000000000000000000000000000000000000000600052603260045260246000fd5b6000611b1282611091565b9150611b1d83611091565b9250827fffffffffffffffffffffffffffffffffffffffffffffffffffffffffffffffff03821115611b5257611b51611a75565b5b828201905092915050565b6000611b6882611091565b91507fffffffffffffffffffffffffffffffffffffffffffffffffffffffffffffffff8203611b9a57611b99611a75565b5b60018201905091905056fea2646970667358221220fa3f66c2420c2b819685076433c5cac2233e344d8608edce565765319852028e64736f6c634300080d0033",
  "immutableReferences": {},
  "source": "// SPDX-License-Identifier: MIT\npragma solidity >=0.4.22 <0.9.0;\n\ncontract Blog {\n  constructor()  {}\n\n  struct Post {\n    uint256 id;\n    string title;\n    string content;\n    uint256 timestamp;\n    address author;\n    string[] tags;\n  }\n\n  Post[] public posts;\n  uint256 public postCount;\n\n  event PostCreated(\n    uint256 id,\n    string title,\n    string content,\n    uint256 timestamp,\n    address author,\n    string[] tags\n  );\n\n  function createPost(string memory _title, string memory _content, string[] memory _tags) public {\n    posts.push(Post({\n      id: postCount + 1,\n      title: _title,\n      content: _content,\n      tags: _tags,\n      timestamp: block.timestamp,\n      author: msg.sender\n    }));\n    postCount++;\n  }\n\n  function getPosts() public view returns (Post[] memory) {\n    return posts;\n  }\n\n  function getPost(uint256 _id) public view returns (Post memory) {\n    return posts[_id - 1] ;\n  }\n\n  function getPostsByAuthor(address _author) public view returns (Post[] memory) {\n    Post[] memory _posts = new Post[](posts.length);\n    uint256 count = 0;\n    for (uint i = 0; i < posts.length; i++) {\n      if (posts[i].author == _author) {\n        _posts[count] = posts[i];\n        count++;\n      }\n    }\n    return _posts;\n  }\n\n  function donateToAuthor(address payable _author) public payable {\n    require(msg.value > 0, \"Amount must be greater than 0\");\n    require(_author != address(0), \"Invalid author address\");\n    _author.transfer(msg.value);\n  }\n}\n",
  "sourcePath": "/Users/tito/Documents/Play/decentralised-blog/contracts/Blog.sol",
  "compiler": {
    "name": "solc",
    "version": "0.8.13+commit.abaa5c0e.Emscripten.clang"
  },
  "schemaVersion": "3.4.14",
  "updatedAt": "2023-09-09T18:26:55.237Z",
  "networkType": "ethereum",
  "devdoc": {
    "kind": "dev",
    "methods": {},
    "version": 1
  },
  "userdoc": {
    "kind": "user",
    "methods": {},
    "version": 1
  }
}