{
  "contractName": "Blog",
  "abi": [
    {
      "inputs": [],
      "stateMutability": "nonpayable",
      "type": "constructor"
    },
    {
      "inputs": [],
      "name": "postCount",
      "outputs": [
        {
          "internalType": "uint256",
          "name": "",
          "type": "uint256"
        }
      ],
      "stateMutability": "view",
      "type": "function",
      "constant": true
    },
    {
      "inputs": [
        {
          "internalType": "uint256",
          "name": "",
          "type": "uint256"
        }
      ],
      "name": "posts",
      "outputs": [
        {
          "internalType": "uint256",
          "name": "id",
          "type": "uint256"
        },
        {
          "internalType": "string",
          "name": "title",
          "type": "string"
        },
        {
          "internalType": "string",
          "name": "content",
          "type": "string"
        },
        {
          "internalType": "uint256",
          "name": "timestamp",
          "type": "uint256"
        },
        {
          "internalType": "address",
          "name": "author",
          "type": "address"
        }
      ],
      "stateMutability": "view",
      "type": "function",
      "constant": true
    },
    {
      "inputs": [
        {
          "internalType": "string",
          "name": "_title",
          "type": "string"
        },
        {
          "internalType": "string",
          "name": "_content",
          "type": "string"
        }
      ],
      "name": "createPost",
      "outputs": [],
      "stateMutability": "nonpayable",
      "type": "function"
    },
    {
      "inputs": [],
      "name": "getPosts",
      "outputs": [
        {
          "components": [
            {
              "internalType": "uint256",
              "name": "id",
              "type": "uint256"
            },
            {
              "internalType": "string",
              "name": "title",
              "type": "string"
            },
            {
              "internalType": "string",
              "name": "content",
              "type": "string"
            },
            {
              "internalType": "uint256",
              "name": "timestamp",
              "type": "uint256"
            },
            {
              "internalType": "address",
              "name": "author",
              "type": "address"
            }
          ],
          "internalType": "struct Blog.Post[]",
          "name": "",
          "type": "tuple[]"
        }
      ],
      "stateMutability": "view",
      "type": "function",
      "constant": true
    },
    {
      "inputs": [
        {
          "internalType": "uint256",
          "name": "_index",
          "type": "uint256"
        }
      ],
      "name": "getPost",
      "outputs": [
        {
          "components": [
            {
              "internalType": "uint256",
              "name": "id",
              "type": "uint256"
            },
            {
              "internalType": "string",
              "name": "title",
              "type": "string"
            },
            {
              "internalType": "string",
              "name": "content",
              "type": "string"
            },
            {
              "internalType": "uint256",
              "name": "timestamp",
              "type": "uint256"
            },
            {
              "internalType": "address",
              "name": "author",
              "type": "address"
            }
          ],
          "internalType": "struct Blog.Post",
          "name": "",
          "type": "tuple"
        }
      ],
      "stateMutability": "view",
      "type": "function",
      "constant": true
    },
    {
      "inputs": [
        {
          "internalType": "address",
          "name": "_author",
          "type": "address"
        }
      ],
      "name": "getPostsByAuthor",
      "outputs": [
        {
          "components": [
            {
              "internalType": "uint256",
              "name": "id",
              "type": "uint256"
            },
            {
              "internalType": "string",
              "name": "title",
              "type": "string"
            },
            {
              "internalType": "string",
              "name": "content",
              "type": "string"
            },
            {
              "internalType": "uint256",
              "name": "timestamp",
              "type": "uint256"
            },
            {
              "internalType": "address",
              "name": "author",
              "type": "address"
            }
          ],
          "internalType": "struct Blog.Post[]",
          "name": "",
          "type": "tuple[]"
        }
      ],
      "stateMutability": "view",
      "type": "function",
      "constant": true
    }
  ],
  "bytecode": "0x608060405234801561001057600080fd5b5061135f806100206000396000f3fe608060405234801561001057600080fd5b50600436106100625760003560e01c80630b1e7f831461006757806317906c2e1461009b578063392338f5146100b957806340731c24146100d557806341f3004a14610105578063f4ab249914610123575b600080fd5b610081600480360381019061007c9190610bcd565b610153565b604051610092959493929190610ce3565b60405180910390f35b6100a36102c9565b6040516100b09190610d44565b60405180910390f35b6100d360048036038101906100ce9190610e94565b6102cf565b005b6100ef60048036038101906100ea9190610bcd565b6103f7565b6040516100fc9190610ff1565b60405180910390f35b61010d6105c1565b60405161011a9190611152565b60405180910390f35b61013d600480360381019061013891906111a0565b6107ae565b60405161014a9190611152565b60405180910390f35b6000818154811061016357600080fd5b906000526020600020906005020160009150905080600001549080600101805461018c906111fc565b80601f01602080910402602001604051908101604052809291908181526020018280546101b8906111fc565b80156102055780601f106101da57610100808354040283529160200191610205565b820191906000526020600020905b8154815290600101906020018083116101e857829003601f168201915b50505050509080600201805461021a906111fc565b80601f0160208091040260200160405190810160405280929190818152602001828054610246906111fc565b80156102935780601f1061026857610100808354040283529160200191610293565b820191906000526020600020905b81548152906001019060200180831161027657829003601f168201915b5050505050908060030154908060040160009054906101000a900473ffffffffffffffffffffffffffffffffffffffff16905085565b60015481565b60006040518060a00160405280600180546102ea919061125c565b81526020018481526020018381526020014281526020013373ffffffffffffffffffffffffffffffffffffffff16815250908060018154018082558091505060019003906000526020600020906005020160009091909190915060008201518160000155602082015181600101908051906020019061036a929190610a9b565b506040820151816002019080519060200190610387929190610a9b565b506060820151816003015560808201518160040160006101000a81548173ffffffffffffffffffffffffffffffffffffffff021916908373ffffffffffffffffffffffffffffffffffffffff1602179055505050600160008154809291906103ee906112b2565b91905055505050565b6103ff610b21565b60008281548110610413576104126112fa565b5b90600052602060002090600502016040518060a001604052908160008201548152602001600182018054610446906111fc565b80601f0160208091040260200160405190810160405280929190818152602001828054610472906111fc565b80156104bf5780601f10610494576101008083540402835291602001916104bf565b820191906000526020600020905b8154815290600101906020018083116104a257829003601f168201915b505050505081526020016002820180546104d8906111fc565b80601f0160208091040260200160405190810160405280929190818152602001828054610504906111fc565b80156105515780601f1061052657610100808354040283529160200191610551565b820191906000526020600020905b81548152906001019060200180831161053457829003601f168201915b50505050508152602001600382015481526020016004820160009054906101000a900473ffffffffffffffffffffffffffffffffffffffff1673ffffffffffffffffffffffffffffffffffffffff1673ffffffffffffffffffffffffffffffffffffffff16815250509050919050565b60606000805480602002602001604051908101604052809291908181526020016000905b828210156107a557838290600052602060002090600502016040518060a001604052908160008201548152602001600182018054610622906111fc565b80601f016020809104026020016040519081016040528092919081815260200182805461064e906111fc565b801561069b5780601f106106705761010080835404028352916020019161069b565b820191906000526020600020905b81548152906001019060200180831161067e57829003601f168201915b505050505081526020016002820180546106b4906111fc565b80601f01602080910402602001604051908101604052809291908181526020018280546106e0906111fc565b801561072d5780601f106107025761010080835404028352916020019161072d565b820191906000526020600020905b81548152906001019060200180831161071057829003601f168201915b50505050508152602001600382015481526020016004820160009054906101000a900473ffffffffffffffffffffffffffffffffffffffff1673ffffffffffffffffffffffffffffffffffffffff1673ffffffffffffffffffffffffffffffffffffffff1681525050815260200190600101906105e5565b50505050905090565b60606000808054905067ffffffffffffffff8111156107d0576107cf610d69565b5b60405190808252806020026020018201604052801561080957816020015b6107f6610b21565b8152602001906001900390816107ee5790505b5090506000805b600080549050811015610a90578473ffffffffffffffffffffffffffffffffffffffff1660008281548110610848576108476112fa565b5b906000526020600020906005020160040160009054906101000a900473ffffffffffffffffffffffffffffffffffffffff1673ffffffffffffffffffffffffffffffffffffffff1603610a7d57600081815481106108a9576108a86112fa565b5b90600052602060002090600502016040518060a0016040529081600082015481526020016001820180546108dc906111fc565b80601f0160208091040260200160405190810160405280929190818152602001828054610908906111fc565b80156109555780601f1061092a57610100808354040283529160200191610955565b820191906000526020600020905b81548152906001019060200180831161093857829003601f168201915b5050505050815260200160028201805461096e906111fc565b80601f016020809104026020016040519081016040528092919081815260200182805461099a906111fc565b80156109e75780601f106109bc576101008083540402835291602001916109e7565b820191906000526020600020905b8154815290600101906020018083116109ca57829003601f168201915b50505050508152602001600382015481526020016004820160009054906101000a900473ffffffffffffffffffffffffffffffffffffffff1673ffffffffffffffffffffffffffffffffffffffff1673ffffffffffffffffffffffffffffffffffffffff1681525050838381518110610a6357610a626112fa565b5b60200260200101819052508180610a79906112b2565b9250505b8080610a88906112b2565b915050610810565b508192505050919050565b828054610aa7906111fc565b90600052602060002090601f016020900481019282610ac95760008555610b10565b82601f10610ae257805160ff1916838001178555610b10565b82800160010185558215610b10579182015b82811115610b0f578251825591602001919060010190610af4565b5b509050610b1d9190610b66565b5090565b6040518060a0016040528060008152602001606081526020016060815260200160008152602001600073ffffffffffffffffffffffffffffffffffffffff1681525090565b5b80821115610b7f576000816000905550600101610b67565b5090565b6000604051905090565b600080fd5b600080fd5b6000819050919050565b610baa81610b97565b8114610bb557600080fd5b50565b600081359050610bc781610ba1565b92915050565b600060208284031215610be357610be2610b8d565b5b6000610bf184828501610bb8565b91505092915050565b610c0381610b97565b82525050565b600081519050919050565b600082825260208201905092915050565b60005b83811015610c43578082015181840152602081019050610c28565b83811115610c52576000848401525b50505050565b6000601f19601f8301169050919050565b6000610c7482610c09565b610c7e8185610c14565b9350610c8e818560208601610c25565b610c9781610c58565b840191505092915050565b600073ffffffffffffffffffffffffffffffffffffffff82169050919050565b6000610ccd82610ca2565b9050919050565b610cdd81610cc2565b82525050565b600060a082019050610cf86000830188610bfa565b8181036020830152610d0a8187610c69565b90508181036040830152610d1e8186610c69565b9050610d2d6060830185610bfa565b610d3a6080830184610cd4565b9695505050505050565b6000602082019050610d596000830184610bfa565b92915050565b600080fd5b600080fd5b7f4e487b7100000000000000000000000000000000000000000000000000000000600052604160045260246000fd5b610da182610c58565b810181811067ffffffffffffffff82111715610dc057610dbf610d69565b5b80604052505050565b6000610dd3610b83565b9050610ddf8282610d98565b919050565b600067ffffffffffffffff821115610dff57610dfe610d69565b5b610e0882610c58565b9050602081019050919050565b82818337600083830152505050565b6000610e37610e3284610de4565b610dc9565b905082815260208101848484011115610e5357610e52610d64565b5b610e5e848285610e15565b509392505050565b600082601f830112610e7b57610e7a610d5f565b5b8135610e8b848260208601610e24565b91505092915050565b60008060408385031215610eab57610eaa610b8d565b5b600083013567ffffffffffffffff811115610ec957610ec8610b92565b5b610ed585828601610e66565b925050602083013567ffffffffffffffff811115610ef657610ef5610b92565b5b610f0285828601610e66565b9150509250929050565b610f1581610b97565b82525050565b600082825260208201905092915050565b6000610f3782610c09565b610f418185610f1b565b9350610f51818560208601610c25565b610f5a81610c58565b840191505092915050565b610f6e81610cc2565b82525050565b600060a083016000830151610f8c6000860182610f0c565b5060208301518482036020860152610fa48282610f2c565b91505060408301518482036040860152610fbe8282610f2c565b9150506060830151610fd36060860182610f0c565b506080830151610fe66080860182610f65565b508091505092915050565b6000602082019050818103600083015261100b8184610f74565b905092915050565b600081519050919050565b600082825260208201905092915050565b6000819050602082019050919050565b600060a0830160008301516110576000860182610f0c565b506020830151848203602086015261106f8282610f2c565b915050604083015184820360408601526110898282610f2c565b915050606083015161109e6060860182610f0c565b5060808301516110b16080860182610f65565b508091505092915050565b60006110c8838361103f565b905092915050565b6000602082019050919050565b60006110e882611013565b6110f2818561101e565b9350836020820285016111048561102f565b8060005b85811015611140578484038952815161112185826110bc565b945061112c836110d0565b925060208a01995050600181019050611108565b50829750879550505050505092915050565b6000602082019050818103600083015261116c81846110dd565b905092915050565b61117d81610cc2565b811461118857600080fd5b50565b60008135905061119a81611174565b92915050565b6000602082840312156111b6576111b5610b8d565b5b60006111c48482850161118b565b91505092915050565b7f4e487b7100000000000000000000000000000000000000000000000000000000600052602260045260246000fd5b6000600282049050600182168061121457607f821691505b602082108103611227576112266111cd565b5b50919050565b7f4e487b7100000000000000000000000000000000000000000000000000000000600052601160045260246000fd5b600061126782610b97565b915061127283610b97565b9250827fffffffffffffffffffffffffffffffffffffffffffffffffffffffffffffffff038211156112a7576112a661122d565b5b828201905092915050565b60006112bd82610b97565b91507fffffffffffffffffffffffffffffffffffffffffffffffffffffffffffffffff82036112ef576112ee61122d565b5b600182019050919050565b7f4e487b7100000000000000000000000000000000000000000000000000000000600052603260045260246000fdfea2646970667358221220b1a9b60bf626f20b99111013c64492ffbd1749fc16ff5fed5d49cfe8d4cd01a764736f6c634300080d0033",
  "immutableReferences": {},
  "source": "// SPDX-License-Identifier: MIT\npragma solidity >=0.4.22 <0.9.0;\n\ncontract Blog {\n  constructor()  {}\n\n  struct Post {\n    uint256 id;\n    string title;\n    string content;\n    uint256 timestamp;\n    address author;\n  }\n\n  Post[] public posts;\n  uint256 public postCount;\n\n  function createPost(string memory _title, string memory _content) public {\n    posts.push(Post({\n      id: postCount + 1,\n      title: _title,\n      content: _content,\n      timestamp: block.timestamp,\n      author: msg.sender\n    }));\n    postCount++;\n  }\n\n  function getPosts() public view returns (Post[] memory) {\n    return posts;\n  }\n\n  function getPost(uint256 _index) public view returns (Post memory) {\n    return posts[_index];\n  }\n\n  function getPostsByAuthor(address _author) public view returns (Post[] memory) {\n    Post[] memory _posts = new Post[](posts.length);\n    uint256 count = 0;\n    for (uint i = 0; i < posts.length; i++) {\n      if (posts[i].author == _author) {\n        _posts[count] = posts[i];\n        count++;\n      }\n    }\n    return _posts;\n  }\n}\n",
  "sourcePath": "/Users/tito/Documents/Play/decentralised-blog/contracts/Blog.sol",
  "compiler": {
    "name": "solc",
    "version": "0.8.13+commit.abaa5c0e.Emscripten.clang"
  },
  "schemaVersion": "3.4.14",
  "updatedAt": "2023-09-05T20:47:49.839Z",
  "networkType": "ethereum",
  "devdoc": {
    "kind": "dev",
    "methods": {},
    "version": 1
  },
  "userdoc": {
    "kind": "user",
    "methods": {},
    "version": 1
  }
}