{
  "contractName": "Blog",
  "abi": [
    {
      "inputs": [],
      "stateMutability": "nonpayable",
      "type": "constructor"
    },
    {
      "inputs": [
        {
          "internalType": "uint256",
          "name": "",
          "type": "uint256"
        }
      ],
      "name": "posts",
      "outputs": [
        {
          "internalType": "string",
          "name": "title",
          "type": "string"
        },
        {
          "internalType": "string",
          "name": "content",
          "type": "string"
        },
        {
          "internalType": "uint256",
          "name": "timestamp",
          "type": "uint256"
        },
        {
          "internalType": "address",
          "name": "author",
          "type": "address"
        }
      ],
      "stateMutability": "view",
      "type": "function",
      "constant": true
    },
    {
      "inputs": [
        {
          "internalType": "string",
          "name": "_title",
          "type": "string"
        },
        {
          "internalType": "string",
          "name": "_content",
          "type": "string"
        }
      ],
      "name": "createPost",
      "outputs": [],
      "stateMutability": "nonpayable",
      "type": "function"
    },
    {
      "inputs": [],
      "name": "getPosts",
      "outputs": [
        {
          "components": [
            {
              "internalType": "string",
              "name": "title",
              "type": "string"
            },
            {
              "internalType": "string",
              "name": "content",
              "type": "string"
            },
            {
              "internalType": "uint256",
              "name": "timestamp",
              "type": "uint256"
            },
            {
              "internalType": "address",
              "name": "author",
              "type": "address"
            }
          ],
          "internalType": "struct Blog.Post[]",
          "name": "",
          "type": "tuple[]"
        }
      ],
      "stateMutability": "view",
      "type": "function",
      "constant": true
    },
    {
      "inputs": [
        {
          "internalType": "uint256",
          "name": "_index",
          "type": "uint256"
        }
      ],
      "name": "getPost",
      "outputs": [
        {
          "components": [
            {
              "internalType": "string",
              "name": "title",
              "type": "string"
            },
            {
              "internalType": "string",
              "name": "content",
              "type": "string"
            },
            {
              "internalType": "uint256",
              "name": "timestamp",
              "type": "uint256"
            },
            {
              "internalType": "address",
              "name": "author",
              "type": "address"
            }
          ],
          "internalType": "struct Blog.Post",
          "name": "",
          "type": "tuple"
        }
      ],
      "stateMutability": "view",
      "type": "function",
      "constant": true
    },
    {
      "inputs": [
        {
          "internalType": "address",
          "name": "_author",
          "type": "address"
        }
      ],
      "name": "getPostsByAuthor",
      "outputs": [
        {
          "components": [
            {
              "internalType": "string",
              "name": "title",
              "type": "string"
            },
            {
              "internalType": "string",
              "name": "content",
              "type": "string"
            },
            {
              "internalType": "uint256",
              "name": "timestamp",
              "type": "uint256"
            },
            {
              "internalType": "address",
              "name": "author",
              "type": "address"
            }
          ],
          "internalType": "struct Blog.Post[]",
          "name": "",
          "type": "tuple[]"
        }
      ],
      "stateMutability": "view",
      "type": "function",
      "constant": true
    }
  ],
  "bytecode": "0x608060405234801561001057600080fd5b5061122a806100206000396000f3fe608060405234801561001057600080fd5b50600436106100575760003560e01c80630b1e7f831461005c578063392338f51461008f57806340731c24146100ab57806341f3004a146100db578063f4ab2499146100f9575b600080fd5b61007660048036038101906100719190610b3d565b610129565b6040516100869493929190610c53565b60405180910390f35b6100a960048036038101906100a49190610ddb565b610299565b005b6100c560048036038101906100c09190610b3d565b61038c565b6040516100d29190610f25565b60405180910390f35b6100e361054c565b6040516100f09190611073565b60405180910390f35b610113600480360381019061010e91906110c1565b61072f565b6040516101209190611073565b60405180910390f35b6000818154811061013957600080fd5b906000526020600020906004020160009150905080600001805461015c9061111d565b80601f01602080910402602001604051908101604052809291908181526020018280546101889061111d565b80156101d55780601f106101aa576101008083540402835291602001916101d5565b820191906000526020600020905b8154815290600101906020018083116101b857829003601f168201915b5050505050908060010180546101ea9061111d565b80601f01602080910402602001604051908101604052809291908181526020018280546102169061111d565b80156102635780601f1061023857610100808354040283529160200191610263565b820191906000526020600020905b81548152906001019060200180831161024657829003601f168201915b5050505050908060020154908060030160009054906101000a900473ffffffffffffffffffffffffffffffffffffffff16905084565b600060405180608001604052808481526020018381526020014281526020013373ffffffffffffffffffffffffffffffffffffffff1681525090806001815401808255809150506001900390600052602060002090600402016000909190919091506000820151816000019080519060200190610317929190610a12565b506020820151816001019080519060200190610334929190610a12565b506040820151816002015560608201518160030160006101000a81548173ffffffffffffffffffffffffffffffffffffffff021916908373ffffffffffffffffffffffffffffffffffffffff16021790555050505050565b610394610a98565b600082815481106103a8576103a761114e565b5b90600052602060002090600402016040518060800160405290816000820180546103d19061111d565b80601f01602080910402602001604051908101604052809291908181526020018280546103fd9061111d565b801561044a5780601f1061041f5761010080835404028352916020019161044a565b820191906000526020600020905b81548152906001019060200180831161042d57829003601f168201915b505050505081526020016001820180546104639061111d565b80601f016020809104026020016040519081016040528092919081815260200182805461048f9061111d565b80156104dc5780601f106104b1576101008083540402835291602001916104dc565b820191906000526020600020905b8154815290600101906020018083116104bf57829003601f168201915b50505050508152602001600282015481526020016003820160009054906101000a900473ffffffffffffffffffffffffffffffffffffffff1673ffffffffffffffffffffffffffffffffffffffff1673ffffffffffffffffffffffffffffffffffffffff16815250509050919050565b60606000805480602002602001604051908101604052809291908181526020016000905b8282101561072657838290600052602060002090600402016040518060800160405290816000820180546105a39061111d565b80601f01602080910402602001604051908101604052809291908181526020018280546105cf9061111d565b801561061c5780601f106105f15761010080835404028352916020019161061c565b820191906000526020600020905b8154815290600101906020018083116105ff57829003601f168201915b505050505081526020016001820180546106359061111d565b80601f01602080910402602001604051908101604052809291908181526020018280546106619061111d565b80156106ae5780601f10610683576101008083540402835291602001916106ae565b820191906000526020600020905b81548152906001019060200180831161069157829003601f168201915b50505050508152602001600282015481526020016003820160009054906101000a900473ffffffffffffffffffffffffffffffffffffffff1673ffffffffffffffffffffffffffffffffffffffff1673ffffffffffffffffffffffffffffffffffffffff168152505081526020019060010190610570565b50505050905090565b60606000808054905067ffffffffffffffff81111561075157610750610cb0565b5b60405190808252806020026020018201604052801561078a57816020015b610777610a98565b81526020019060019003908161076f5790505b5090506000805b600080549050811015610a07578473ffffffffffffffffffffffffffffffffffffffff16600082815481106107c9576107c861114e565b5b906000526020600020906004020160030160009054906101000a900473ffffffffffffffffffffffffffffffffffffffff1673ffffffffffffffffffffffffffffffffffffffff16036109f4576000818154811061082a5761082961114e565b5b90600052602060002090600402016040518060800160405290816000820180546108539061111d565b80601f016020809104026020016040519081016040528092919081815260200182805461087f9061111d565b80156108cc5780601f106108a1576101008083540402835291602001916108cc565b820191906000526020600020905b8154815290600101906020018083116108af57829003601f168201915b505050505081526020016001820180546108e59061111d565b80601f01602080910402602001604051908101604052809291908181526020018280546109119061111d565b801561095e5780601f106109335761010080835404028352916020019161095e565b820191906000526020600020905b81548152906001019060200180831161094157829003601f168201915b50505050508152602001600282015481526020016003820160009054906101000a900473ffffffffffffffffffffffffffffffffffffffff1673ffffffffffffffffffffffffffffffffffffffff1673ffffffffffffffffffffffffffffffffffffffff16815250508383815181106109da576109d961114e565b5b602002602001018190525081806109f0906111ac565b9250505b80806109ff906111ac565b915050610791565b508192505050919050565b828054610a1e9061111d565b90600052602060002090601f016020900481019282610a405760008555610a87565b82601f10610a5957805160ff1916838001178555610a87565b82800160010185558215610a87579182015b82811115610a86578251825591602001919060010190610a6b565b5b509050610a949190610ad6565b5090565b6040518060800160405280606081526020016060815260200160008152602001600073ffffffffffffffffffffffffffffffffffffffff1681525090565b5b80821115610aef576000816000905550600101610ad7565b5090565b6000604051905090565b600080fd5b600080fd5b6000819050919050565b610b1a81610b07565b8114610b2557600080fd5b50565b600081359050610b3781610b11565b92915050565b600060208284031215610b5357610b52610afd565b5b6000610b6184828501610b28565b91505092915050565b600081519050919050565b600082825260208201905092915050565b60005b83811015610ba4578082015181840152602081019050610b89565b83811115610bb3576000848401525b50505050565b6000601f19601f8301169050919050565b6000610bd582610b6a565b610bdf8185610b75565b9350610bef818560208601610b86565b610bf881610bb9565b840191505092915050565b610c0c81610b07565b82525050565b600073ffffffffffffffffffffffffffffffffffffffff82169050919050565b6000610c3d82610c12565b9050919050565b610c4d81610c32565b82525050565b60006080820190508181036000830152610c6d8187610bca565b90508181036020830152610c818186610bca565b9050610c906040830185610c03565b610c9d6060830184610c44565b95945050505050565b600080fd5b600080fd5b7f4e487b7100000000000000000000000000000000000000000000000000000000600052604160045260246000fd5b610ce882610bb9565b810181811067ffffffffffffffff82111715610d0757610d06610cb0565b5b80604052505050565b6000610d1a610af3565b9050610d268282610cdf565b919050565b600067ffffffffffffffff821115610d4657610d45610cb0565b5b610d4f82610bb9565b9050602081019050919050565b82818337600083830152505050565b6000610d7e610d7984610d2b565b610d10565b905082815260208101848484011115610d9a57610d99610cab565b5b610da5848285610d5c565b509392505050565b600082601f830112610dc257610dc1610ca6565b5b8135610dd2848260208601610d6b565b91505092915050565b60008060408385031215610df257610df1610afd565b5b600083013567ffffffffffffffff811115610e1057610e0f610b02565b5b610e1c85828601610dad565b925050602083013567ffffffffffffffff811115610e3d57610e3c610b02565b5b610e4985828601610dad565b9150509250929050565b600082825260208201905092915050565b6000610e6f82610b6a565b610e798185610e53565b9350610e89818560208601610b86565b610e9281610bb9565b840191505092915050565b610ea681610b07565b82525050565b610eb581610c32565b82525050565b60006080830160008301518482036000860152610ed88282610e64565b91505060208301518482036020860152610ef28282610e64565b9150506040830151610f076040860182610e9d565b506060830151610f1a6060860182610eac565b508091505092915050565b60006020820190508181036000830152610f3f8184610ebb565b905092915050565b600081519050919050565b600082825260208201905092915050565b6000819050602082019050919050565b60006080830160008301518482036000860152610f908282610e64565b91505060208301518482036020860152610faa8282610e64565b9150506040830151610fbf6040860182610e9d565b506060830151610fd26060860182610eac565b508091505092915050565b6000610fe98383610f73565b905092915050565b6000602082019050919050565b600061100982610f47565b6110138185610f52565b93508360208202850161102585610f63565b8060005b8581101561106157848403895281516110428582610fdd565b945061104d83610ff1565b925060208a01995050600181019050611029565b50829750879550505050505092915050565b6000602082019050818103600083015261108d8184610ffe565b905092915050565b61109e81610c32565b81146110a957600080fd5b50565b6000813590506110bb81611095565b92915050565b6000602082840312156110d7576110d6610afd565b5b60006110e5848285016110ac565b91505092915050565b7f4e487b7100000000000000000000000000000000000000000000000000000000600052602260045260246000fd5b6000600282049050600182168061113557607f821691505b602082108103611148576111476110ee565b5b50919050565b7f4e487b7100000000000000000000000000000000000000000000000000000000600052603260045260246000fd5b7f4e487b7100000000000000000000000000000000000000000000000000000000600052601160045260246000fd5b60006111b782610b07565b91507fffffffffffffffffffffffffffffffffffffffffffffffffffffffffffffffff82036111e9576111e861117d565b5b60018201905091905056fea2646970667358221220c0481b6e896fb1d1574c889e85c9ad2ab5ed463421136420b8876e4346cd77d364736f6c634300080d0033",
  "immutableReferences": {},
  "source": "// SPDX-License-Identifier: MIT\npragma solidity >=0.4.22 <0.9.0;\n\ncontract Blog {\n  constructor()  {}\n\n  struct Post {\n    string title;\n    string content;\n    uint256 timestamp;\n    address author;\n  }\n\n  Post[] public posts;\n\n  function createPost(string memory _title, string memory _content) public {\n    posts.push(Post({\n      title: _title,\n      content: _content,\n      timestamp: block.timestamp,\n      author: msg.sender\n    }));\n  }\n\n  function getPosts() public view returns (Post[] memory) {\n    return posts;\n  }\n\n  function getPost(uint256 _index) public view returns (Post memory) {\n    return posts[_index];\n  }\n\n  function getPostsByAuthor(address _author) public view returns (Post[] memory) {\n    Post[] memory _posts = new Post[](posts.length);\n    uint256 count = 0;\n    for (uint i = 0; i < posts.length; i++) {\n      if (posts[i].author == _author) {\n        _posts[count] = posts[i];\n        count++;\n      }\n    }\n    return _posts;\n  }\n}\n",
  "sourcePath": "/Users/tito/Documents/Play/decentralised-blog/contracts/Blog.sol",
  "compiler": {
    "name": "solc",
    "version": "0.8.13+commit.abaa5c0e.Emscripten.clang"
  },
  "schemaVersion": "3.4.14",
  "updatedAt": "2023-08-23T21:06:54.859Z",
  "networkType": "ethereum",
  "devdoc": {
    "kind": "dev",
    "methods": {},
    "version": 1
  },
  "userdoc": {
    "kind": "user",
    "methods": {},
    "version": 1
  }
}