{
  "contractName": "Blog",
  "abi": [
    {
      "inputs": [],
      "stateMutability": "nonpayable",
      "type": "constructor"
    },
    {
      "anonymous": false,
      "inputs": [
        {
          "indexed": false,
          "internalType": "uint256",
          "name": "id",
          "type": "uint256"
        },
        {
          "indexed": false,
          "internalType": "string",
          "name": "title",
          "type": "string"
        },
        {
          "indexed": false,
          "internalType": "string",
          "name": "content",
          "type": "string"
        },
        {
          "indexed": false,
          "internalType": "uint256",
          "name": "timestamp",
          "type": "uint256"
        },
        {
          "indexed": false,
          "internalType": "address",
          "name": "author",
          "type": "address"
        }
      ],
      "name": "PostCreated",
      "type": "event"
    },
    {
      "inputs": [],
      "name": "postCount",
      "outputs": [
        {
          "internalType": "uint256",
          "name": "",
          "type": "uint256"
        }
      ],
      "stateMutability": "view",
      "type": "function",
      "constant": true
    },
    {
      "inputs": [
        {
          "internalType": "uint256",
          "name": "",
          "type": "uint256"
        }
      ],
      "name": "posts",
      "outputs": [
        {
          "internalType": "uint256",
          "name": "id",
          "type": "uint256"
        },
        {
          "internalType": "string",
          "name": "title",
          "type": "string"
        },
        {
          "internalType": "string",
          "name": "content",
          "type": "string"
        },
        {
          "internalType": "uint256",
          "name": "timestamp",
          "type": "uint256"
        },
        {
          "internalType": "address",
          "name": "author",
          "type": "address"
        }
      ],
      "stateMutability": "view",
      "type": "function",
      "constant": true
    },
    {
      "inputs": [
        {
          "internalType": "string",
          "name": "_title",
          "type": "string"
        },
        {
          "internalType": "string",
          "name": "_content",
          "type": "string"
        },
        {
          "internalType": "string[]",
          "name": "_tags",
          "type": "string[]"
        }
      ],
      "name": "createPost",
      "outputs": [],
      "stateMutability": "nonpayable",
      "type": "function"
    },
    {
      "inputs": [],
      "name": "getPosts",
      "outputs": [
        {
          "components": [
            {
              "internalType": "uint256",
              "name": "id",
              "type": "uint256"
            },
            {
              "internalType": "string",
              "name": "title",
              "type": "string"
            },
            {
              "internalType": "string",
              "name": "content",
              "type": "string"
            },
            {
              "internalType": "uint256",
              "name": "timestamp",
              "type": "uint256"
            },
            {
              "internalType": "address",
              "name": "author",
              "type": "address"
            },
            {
              "internalType": "string[]",
              "name": "tags",
              "type": "string[]"
            }
          ],
          "internalType": "struct Blog.Post[]",
          "name": "",
          "type": "tuple[]"
        }
      ],
      "stateMutability": "view",
      "type": "function",
      "constant": true
    },
    {
      "inputs": [
        {
          "internalType": "uint256",
          "name": "_id",
          "type": "uint256"
        }
      ],
      "name": "getPost",
      "outputs": [
        {
          "components": [
            {
              "internalType": "uint256",
              "name": "id",
              "type": "uint256"
            },
            {
              "internalType": "string",
              "name": "title",
              "type": "string"
            },
            {
              "internalType": "string",
              "name": "content",
              "type": "string"
            },
            {
              "internalType": "uint256",
              "name": "timestamp",
              "type": "uint256"
            },
            {
              "internalType": "address",
              "name": "author",
              "type": "address"
            },
            {
              "internalType": "string[]",
              "name": "tags",
              "type": "string[]"
            }
          ],
          "internalType": "struct Blog.Post",
          "name": "",
          "type": "tuple"
        }
      ],
      "stateMutability": "view",
      "type": "function",
      "constant": true
    },
    {
      "inputs": [
        {
          "internalType": "address",
          "name": "_author",
          "type": "address"
        }
      ],
      "name": "getPostsByAuthor",
      "outputs": [
        {
          "components": [
            {
              "internalType": "uint256",
              "name": "id",
              "type": "uint256"
            },
            {
              "internalType": "string",
              "name": "title",
              "type": "string"
            },
            {
              "internalType": "string",
              "name": "content",
              "type": "string"
            },
            {
              "internalType": "uint256",
              "name": "timestamp",
              "type": "uint256"
            },
            {
              "internalType": "address",
              "name": "author",
              "type": "address"
            },
            {
              "internalType": "string[]",
              "name": "tags",
              "type": "string[]"
            }
          ],
          "internalType": "struct Blog.Post[]",
          "name": "",
          "type": "tuple[]"
        }
      ],
      "stateMutability": "view",
      "type": "function",
      "constant": true
    }
  ],
  "bytecode": "0x608060405234801561001057600080fd5b50611924806100206000396000f3fe608060405234801561001057600080fd5b50600436106100625760003560e01c80630b1e7f831461006757806317906c2e1461009b57806340731c24146100b957806341f3004a146100e9578063b01c7a4d14610107578063f4ab249914610123575b600080fd5b610081600480360381019061007c9190610f53565b610153565b604051610092959493929190611069565b60405180910390f35b6100a36102c9565b6040516100b091906110ca565b60405180910390f35b6100d360048036038101906100ce9190610f53565b6102cf565b6040516100e091906112a6565b60405180910390f35b6100f161057e565b6040516100fe9190611421565b60405180910390f35b610121600480360381019061011c919061165e565b610844565b005b61013d60048036038101906101389190611731565b610990565b60405161014a9190611421565b60405180910390f35b6000818154811061016357600080fd5b906000526020600020906006020160009150905080600001549080600101805461018c9061178d565b80601f01602080910402602001604051908101604052809291908181526020018280546101b89061178d565b80156102055780601f106101da57610100808354040283529160200191610205565b820191906000526020600020905b8154815290600101906020018083116101e857829003601f168201915b50505050509080600201805461021a9061178d565b80601f01602080910402602001604051908101604052809291908181526020018280546102469061178d565b80156102935780601f1061026857610100808354040283529160200191610293565b820191906000526020600020905b81548152906001019060200180831161027657829003601f168201915b5050505050908060030154908060040160009054906101000a900473ffffffffffffffffffffffffffffffffffffffff16905085565b60015481565b6102d7610d56565b60006001836102e691906117ed565b815481106102f7576102f6611821565b5b90600052602060002090600602016040518060c00160405290816000820154815260200160018201805461032a9061178d565b80601f01602080910402602001604051908101604052809291908181526020018280546103569061178d565b80156103a35780601f10610378576101008083540402835291602001916103a3565b820191906000526020600020905b81548152906001019060200180831161038657829003601f168201915b505050505081526020016002820180546103bc9061178d565b80601f01602080910402602001604051908101604052809291908181526020018280546103e89061178d565b80156104355780601f1061040a57610100808354040283529160200191610435565b820191906000526020600020905b81548152906001019060200180831161041857829003601f168201915b50505050508152602001600382015481526020016004820160009054906101000a900473ffffffffffffffffffffffffffffffffffffffff1673ffffffffffffffffffffffffffffffffffffffff1673ffffffffffffffffffffffffffffffffffffffff16815260200160058201805480602002602001604051908101604052809291908181526020016000905b8282101561056f5783829060005260206000200180546104e29061178d565b80601f016020809104026020016040519081016040528092919081815260200182805461050e9061178d565b801561055b5780601f106105305761010080835404028352916020019161055b565b820191906000526020600020905b81548152906001019060200180831161053e57829003601f168201915b5050505050815260200190600101906104c3565b50505050815250509050919050565b60606000805480602002602001604051908101604052809291908181526020016000905b8282101561083b57838290600052602060002090600602016040518060c0016040529081600082015481526020016001820180546105df9061178d565b80601f016020809104026020016040519081016040528092919081815260200182805461060b9061178d565b80156106585780601f1061062d57610100808354040283529160200191610658565b820191906000526020600020905b81548152906001019060200180831161063b57829003601f168201915b505050505081526020016002820180546106719061178d565b80601f016020809104026020016040519081016040528092919081815260200182805461069d9061178d565b80156106ea5780601f106106bf576101008083540402835291602001916106ea565b820191906000526020600020905b8154815290600101906020018083116106cd57829003601f168201915b50505050508152602001600382015481526020016004820160009054906101000a900473ffffffffffffffffffffffffffffffffffffffff1673ffffffffffffffffffffffffffffffffffffffff1673ffffffffffffffffffffffffffffffffffffffff16815260200160058201805480602002602001604051908101604052809291908181526020016000905b828210156108245783829060005260206000200180546107979061178d565b80601f01602080910402602001604051908101604052809291908181526020018280546107c39061178d565b80156108105780601f106107e557610100808354040283529160200191610810565b820191906000526020600020905b8154815290600101906020018083116107f357829003601f168201915b505050505081526020019060010190610778565b5050505081525050815260200190600101906105a2565b50505050905090565b60006040518060c001604052806001805461085f9190611850565b81526020018581526020018481526020014281526020013373ffffffffffffffffffffffffffffffffffffffff1681526020018381525090806001815401808255809150506001900390600052602060002090600602016000909190919091506000820151816000015560208201518160010190805190602001906108e5929190610da2565b506040820151816002019080519060200190610902929190610da2565b506060820151816003015560808201518160040160006101000a81548173ffffffffffffffffffffffffffffffffffffffff021916908373ffffffffffffffffffffffffffffffffffffffff16021790555060a0820151816005019080519060200190610970929190610e28565b50505060016000815480929190610986906118a6565b9190505550505050565b60606000808054905067ffffffffffffffff8111156109b2576109b161144d565b5b6040519080825280602002602001820160405280156109eb57816020015b6109d8610d56565b8152602001906001900390816109d05790505b5090506000805b600080549050811015610d4b578473ffffffffffffffffffffffffffffffffffffffff1660008281548110610a2a57610a29611821565b5b906000526020600020906006020160040160009054906101000a900473ffffffffffffffffffffffffffffffffffffffff1673ffffffffffffffffffffffffffffffffffffffff1603610d385760008181548110610a8b57610a8a611821565b5b90600052602060002090600602016040518060c001604052908160008201548152602001600182018054610abe9061178d565b80601f0160208091040260200160405190810160405280929190818152602001828054610aea9061178d565b8015610b375780601f10610b0c57610100808354040283529160200191610b37565b820191906000526020600020905b815481529060010190602001808311610b1a57829003601f168201915b50505050508152602001600282018054610b509061178d565b80601f0160208091040260200160405190810160405280929190818152602001828054610b7c9061178d565b8015610bc95780601f10610b9e57610100808354040283529160200191610bc9565b820191906000526020600020905b815481529060010190602001808311610bac57829003601f168201915b50505050508152602001600382015481526020016004820160009054906101000a900473ffffffffffffffffffffffffffffffffffffffff1673ffffffffffffffffffffffffffffffffffffffff1673ffffffffffffffffffffffffffffffffffffffff16815260200160058201805480602002602001604051908101604052809291908181526020016000905b82821015610d03578382906000526020600020018054610c769061178d565b80601f0160208091040260200160405190810160405280929190818152602001828054610ca29061178d565b8015610cef5780601f10610cc457610100808354040283529160200191610cef565b820191906000526020600020905b815481529060010190602001808311610cd257829003601f168201915b505050505081526020019060010190610c57565b5050505081525050838381518110610d1e57610d1d611821565b5b60200260200101819052508180610d34906118a6565b9250505b8080610d43906118a6565b9150506109f2565b508192505050919050565b6040518060c0016040528060008152602001606081526020016060815260200160008152602001600073ffffffffffffffffffffffffffffffffffffffff168152602001606081525090565b828054610dae9061178d565b90600052602060002090601f016020900481019282610dd05760008555610e17565b82601f10610de957805160ff1916838001178555610e17565b82800160010185558215610e17579182015b82811115610e16578251825591602001919060010190610dfb565b5b509050610e249190610e88565b5090565b828054828255906000526020600020908101928215610e77579160200282015b82811115610e76578251829080519060200190610e66929190610da2565b5091602001919060010190610e48565b5b509050610e849190610ea5565b5090565b5b80821115610ea1576000816000905550600101610e89565b5090565b5b80821115610ec55760008181610ebc9190610ec9565b50600101610ea6565b5090565b508054610ed59061178d565b6000825580601f10610ee75750610f06565b601f016020900490600052602060002090810190610f059190610e88565b5b50565b6000604051905090565b600080fd5b600080fd5b6000819050919050565b610f3081610f1d565b8114610f3b57600080fd5b50565b600081359050610f4d81610f27565b92915050565b600060208284031215610f6957610f68610f13565b5b6000610f7784828501610f3e565b91505092915050565b610f8981610f1d565b82525050565b600081519050919050565b600082825260208201905092915050565b60005b83811015610fc9578082015181840152602081019050610fae565b83811115610fd8576000848401525b50505050565b6000601f19601f8301169050919050565b6000610ffa82610f8f565b6110048185610f9a565b9350611014818560208601610fab565b61101d81610fde565b840191505092915050565b600073ffffffffffffffffffffffffffffffffffffffff82169050919050565b600061105382611028565b9050919050565b61106381611048565b82525050565b600060a08201905061107e6000830188610f80565b81810360208301526110908187610fef565b905081810360408301526110a48186610fef565b90506110b36060830185610f80565b6110c0608083018461105a565b9695505050505050565b60006020820190506110df6000830184610f80565b92915050565b6110ee81610f1d565b82525050565b600082825260208201905092915050565b600061111082610f8f565b61111a81856110f4565b935061112a818560208601610fab565b61113381610fde565b840191505092915050565b61114781611048565b82525050565b600081519050919050565b600082825260208201905092915050565b6000819050602082019050919050565b60006111858383611105565b905092915050565b6000602082019050919050565b60006111a58261114d565b6111af8185611158565b9350836020820285016111c185611169565b8060005b858110156111fd57848403895281516111de8582611179565b94506111e98361118d565b925060208a019950506001810190506111c5565b50829750879550505050505092915050565b600060c08301600083015161122760008601826110e5565b506020830151848203602086015261123f8282611105565b915050604083015184820360408601526112598282611105565b915050606083015161126e60608601826110e5565b506080830151611281608086018261113e565b5060a083015184820360a0860152611299828261119a565b9150508091505092915050565b600060208201905081810360008301526112c0818461120f565b905092915050565b600081519050919050565b600082825260208201905092915050565b6000819050602082019050919050565b600060c08301600083015161130c60008601826110e5565b50602083015184820360208601526113248282611105565b9150506040830151848203604086015261133e8282611105565b915050606083015161135360608601826110e5565b506080830151611366608086018261113e565b5060a083015184820360a086015261137e828261119a565b9150508091505092915050565b600061139783836112f4565b905092915050565b6000602082019050919050565b60006113b7826112c8565b6113c181856112d3565b9350836020820285016113d3856112e4565b8060005b8581101561140f57848403895281516113f0858261138b565b94506113fb8361139f565b925060208a019950506001810190506113d7565b50829750879550505050505092915050565b6000602082019050818103600083015261143b81846113ac565b905092915050565b600080fd5b600080fd5b7f4e487b7100000000000000000000000000000000000000000000000000000000600052604160045260246000fd5b61148582610fde565b810181811067ffffffffffffffff821117156114a4576114a361144d565b5b80604052505050565b60006114b7610f09565b90506114c3828261147c565b919050565b600067ffffffffffffffff8211156114e3576114e261144d565b5b6114ec82610fde565b9050602081019050919050565b82818337600083830152505050565b600061151b611516846114c8565b6114ad565b90508281526020810184848401111561153757611536611448565b5b6115428482856114f9565b509392505050565b600082601f83011261155f5761155e611443565b5b813561156f848260208601611508565b91505092915050565b600067ffffffffffffffff8211156115935761159261144d565b5b602082029050602081019050919050565b600080fd5b60006115bc6115b784611578565b6114ad565b905080838252602082019050602084028301858111156115df576115de6115a4565b5b835b8181101561162657803567ffffffffffffffff81111561160457611603611443565b5b808601611611898261154a565b855260208501945050506020810190506115e1565b5050509392505050565b600082601f83011261164557611644611443565b5b81356116558482602086016115a9565b91505092915050565b60008060006060848603121561167757611676610f13565b5b600084013567ffffffffffffffff81111561169557611694610f18565b5b6116a18682870161154a565b935050602084013567ffffffffffffffff8111156116c2576116c1610f18565b5b6116ce8682870161154a565b925050604084013567ffffffffffffffff8111156116ef576116ee610f18565b5b6116fb86828701611630565b9150509250925092565b61170e81611048565b811461171957600080fd5b50565b60008135905061172b81611705565b92915050565b60006020828403121561174757611746610f13565b5b60006117558482850161171c565b91505092915050565b7f4e487b7100000000000000000000000000000000000000000000000000000000600052602260045260246000fd5b600060028204905060018216806117a557607f821691505b6020821081036117b8576117b761175e565b5b50919050565b7f4e487b7100000000000000000000000000000000000000000000000000000000600052601160045260246000fd5b60006117f882610f1d565b915061180383610f1d565b925082821015611816576118156117be565b5b828203905092915050565b7f4e487b7100000000000000000000000000000000000000000000000000000000600052603260045260246000fd5b600061185b82610f1d565b915061186683610f1d565b9250827fffffffffffffffffffffffffffffffffffffffffffffffffffffffffffffffff0382111561189b5761189a6117be565b5b828201905092915050565b60006118b182610f1d565b91507fffffffffffffffffffffffffffffffffffffffffffffffffffffffffffffffff82036118e3576118e26117be565b5b60018201905091905056fea2646970667358221220caeec9b6305647316860bc81f7ddd869ebe59ac47c79828614012ff5b45fe24064736f6c634300080d0033",
  "immutableReferences": {},
  "source": "// SPDX-License-Identifier: MIT\npragma solidity >=0.4.22 <0.9.0;\n\ncontract Blog {\n  constructor()  {}\n\n  struct Post {\n    uint256 id;\n    string title;\n    string content;\n    uint256 timestamp;\n    address author;\n    string[] tags;\n  }\n\n  Post[] public posts;\n  uint256 public postCount;\n\n  event PostCreated(\n    uint256 id,\n    string title,\n    string content,\n    uint256 timestamp,\n    address author\n  );\n\n  function createPost(string memory _title, string memory _content, string[] memory _tags) public {\n    posts.push(Post({\n      id: postCount + 1,\n      title: _title,\n      content: _content,\n      tags: _tags,\n      timestamp: block.timestamp,\n      author: msg.sender\n    }));\n    postCount++;\n  }\n\n  function getPosts() public view returns (Post[] memory) {\n    return posts;\n  }\n\n  function getPost(uint256 _id) public view returns (Post memory) {\n    return posts[_id - 1] ;\n  }\n\n  function getPostsByAuthor(address _author) public view returns (Post[] memory) {\n    Post[] memory _posts = new Post[](posts.length);\n    uint256 count = 0;\n    for (uint i = 0; i < posts.length; i++) {\n      if (posts[i].author == _author) {\n        _posts[count] = posts[i];\n        count++;\n      }\n    }\n    return _posts;\n  }\n}\n",
  "sourcePath": "/Users/tito/Documents/Play/decentralised-blog/contracts/Blog.sol",
  "compiler": {
    "name": "solc",
    "version": "0.8.13+commit.abaa5c0e.Emscripten.clang"
  },
  "schemaVersion": "3.4.14",
  "updatedAt": "2023-09-09T14:33:50.548Z",
  "networkType": "ethereum",
  "devdoc": {
    "kind": "dev",
    "methods": {},
    "version": 1
  },
  "userdoc": {
    "kind": "user",
    "methods": {},
    "version": 1
  }
}